:100000000C9462000C940A050C94E3040C948A008E
:100010000C948A000C948A000C948A000C948A0038
:100020000C948A000C948A000C948A000C948A0028
:100030000C948A000C948A000C948A000C948A0018
:100040000C9499040C948A000C9467040C94410459
:100050000C948A000C948A000C948A000C948A00F8
:100060000C948A000C948A000000000024002700F1
:100070002A0000000000250028002B0000000000DE
:1000800023002600290004040404040404040202DA
:100090000202020203030303030301020408102007
:1000A0004080010204081020010204081020000012
:1000B0000008000201000003040700000000000027
:1000C00000000D0811241FBECFEFD8E0DEBFCDBF6A
:1000D00011E0A0E0B1E0E8ECF0E102C005900D9283
:1000E000AA37B107D9F722E0AAE7B1E001C01D9213
:1000F000A932B207E1F710E0C2E6D0E004C02197D0
:10010000FE010E945C08C136D107C9F70E94310583
:100110000C9462080C940000AF92BF92CF92DF92D1
:10012000EF92FF920F931F93CF93DF936C017B01AC
:100130008B01040F151FEB015E01AE18BF08C0173D
:10014000D10759F06991D601ED91FC910190F081B0
:10015000E02DC6010995892B79F7C501DF91CF9173
:100160001F910F91FF90EF90DF90CF90BF90AF90D5
:100170000895FC01538D448D252F30E0842F90E0AD
:10018000821B930B541710F0CF9608950197089592
:10019000FC01918D828D981761F0A28DAE0FBF2F5B
:1001A000B11D5D968C91928D9F5F9F73928F90E0B1
:1001B00008958FEF9FEF0895FC01918D828D981720
:1001C00031F0828DE80FF11D858D90E008958FEF5D
:1001D0009FEF0895FC01918D228D892F90E0805C26
:1001E0009F4F821B91098F73992708958CE891E0A6
:1001F0000E94EA0021E0892B09F420E0822F089573
:1002000080E090E0892B29F00E94F60081110C9487
:1002100000000895FC01A48DA80FB92FB11DA35AA9
:10022000BF4F2C91848D90E001968F739927848F16
:10023000A689B7892C93A089B1898C918370806439
:100240008C93938D848D981306C00288F389E02DDA
:1002500080818F7D80830895EF92FF920F931F938B
:10026000CF93DF93EC0181E0888F9B8D8C8D981369
:100270001AC0E889F989808185FF15C09FB7F89475
:10028000EE89FF896083E889F989808183708064C1
:1002900080839FBF81E090E0DF91CF911F910F910C
:1002A000FF90EF900895F62E0B8D10E00F5F1F4F1B
:1002B0000F731127E02E8C8D8E110CC00FB607FC2A
:1002C000FACFE889F989808185FFF5CFCE010E94B8
:1002D0000A01F1CFEB8DEC0FFD2FF11DE35AFF4F1B
:1002E000F0829FB7F8940B8FEA89FB898081806246
:1002F000CFCFCF93DF93EC01888D8823B9F0AA8903
:10030000BB89E889F9898C9185FD03C0808186FDD0
:100310000DC00FB607FCF7CF8C9185FFF2CF80811F
:1003200085FFEDCFCE010E940A01E9CFDF91CF9189
:100330000895833081F028F4813099F08230A9F05B
:1003400008958730A9F08830C9F08430B1F48091E5
:1003500080008F7D03C0809180008F778093800024
:10036000089584B58F7784BD089584B58F7DFBCFC4
:100370008091B0008F778093B00008958091B00095
:100380008F7DF9CFCF93DF93282F30E0F901E2552D
:10039000FF4F8491F901E656FF4FD491F901EA57D6
:1003A000FF4FC491CC23A1F081110E949901EC2F41
:1003B000F0E0EE0FFF1FE458FF4FA591B491EC91D0
:1003C000ED2381E090E009F480E0DF91CF91089582
:1003D00080E090E0FACF1F93CF93DF93282F30E097
:1003E000F901E255FF4F8491F901E656FF4FD49190
:1003F000F901EA57FF4FC491CC23A9F0162F8111C0
:100400000E949901EC2FF0E0EE0FFF1FEE58FF4F16
:10041000A591B4918FB7F894EC91111108C0D095C3
:10042000DE23DC938FBFDF91CF911F910895DE2BE8
:10043000F8CFCF93DF9390E0FC01E656FF4F249175
:100440008A579F4FFC0184918823D1F090E0880F58
:10045000991FFC01E859FF4FA591B491FC01EE589A
:10046000FF4FC591D49161110EC09FB7F8948C9144
:10047000E22FE0958E238C932881E223E8839FBFAF
:10048000DF91CF9108958FB7F894EC91E22BEC9324
:100490008FBFF6CF8230910538F0880F991F880FF3
:1004A000991F05970197F1F7089508950F931F93EA
:1004B0004FB7F8940091810110918201209183013E
:1004C000309184014FBF092E000CAA0BBB0BEFB774
:1004D000F894409181015091820160918301709163
:1004E0008401EFBF401B510B620B730B4817590778
:1004F0006A077B0760F31F910F910895EF92FF92B7
:100500000F931F93CF93DF9382E00E94C2018C016F
:100510000197F1F485E00E94C201EC0186E00E949F
:10052000C2017C0187E00E94C201CC0FDD1FCE0D0D
:10053000DF1DCC0FDD1F8C0F9D1F90938B018093CF
:100540008A01880F991FFC01EC5FFE4F1183008325
:10055000DF91CF911F910F91FF90EF9008957F92BF
:100560008F929F92AF92BF92CF92DF92EF92FF92C3
:100570000F931F93CF93DF935C0110927B01109236
:100580007A019BE0792E86E08A9D80018B9D100D7B
:1005900011240A5B1E4F680182E0C80ED11C78014D
:1005A000E4E0EE0EF11CC0917A01D0917B01C53BD5
:1005B000D105ECF57C9E40017D9E900C1124FCE061
:1005C0008F1AFEEF9F0A909286018092850161E06A
:1005D0008EE00E94EB01F80160818FE00E94EB0148
:1005E000F601608180E10E94EB01F701608181E109
:1005F0000E94EB01C4010E944A0260E08EE00E946A
:10060000EB0160E08FE00E94EB0160E080E10E947E
:10061000EB0160E081E10E94EB0182E390E00E9447
:1006200056022596D0937B01C0937A01BCCF84EB10
:1006300090E090937B0180937A018BE0982E86E086
:100640008A9D80018B9D100D11240A5B1E4F68014D
:10065000F2E0CF0ED11C780184E0E80EF11CC091CD
:100660007A01D0917B01D7FD3DC09C9E50019D9E9B
:10067000B00C1124ECE0AE1AEEEFBE0AB092860187
:10068000A092850161E08EE00E94EB01F80160819B
:100690008FE00E94EB01F601608180E10E94EB0196
:1006A000F701608181E10E94EB01C5010E944A02CD
:1006B00060E08EE00E94EB0160E08FE00E94EB01C1
:1006C00060E080E10E94EB0160E081E10E94EB01CB
:1006D00082E390E00E9456022597D0937B01C0935D
:1006E0007A01BDCFDF91CF911F910F91FF90EF90D5
:1006F000DF90CF90BF90AF909F908F907F900895A4
:100700008F929F92AF92BF920F931F93CF93DF93DD
:10071000CDB7DEB7A1970FB6F894DEBF0FBECDBF41
:1007200019A2423008F44AE08E010F5D1F4F842E5B
:10073000912CB12CA12CA50194010E943A08E62F1E
:10074000B901CA01EA3044F5E05DD801EE938D01AC
:10075000232B242B252B79F790E080E0109769F06C
:10076000FD0101900020E9F73197AF014A1B5B0BB7
:10077000BD018CE891E00E948C00A1960FB6F89420
:10078000DEBF0FBECDBFDF91CF911F910F91BF9004
:10079000AF909F908F900895E95CD7CFCF92DF9272
:1007A000EF92FF92CF93DF9383E00E94C201019703
:1007B00009F059C08AE00E94C201EC018BE00E945E
:1007C000C2016C018CE00E94C2017C018DE00E949C
:1007D000C201CC0FDD1FCC0DDD1DCC0FDD1FCE0DFA
:1007E000DF1DCC0FDD1F8C0F9D1F8F30910511F485
:1007F00090E080E0EC0197FD2196D595C79580FDAE
:1008000039C0FE01EE0FFF1FEC5DFE4F81E090E06E
:10081000918380836E010D2E000CEE08FF084AE0E4
:10082000C701B601D7FF0DC06DE28CE891E00E94D0
:100830002C0166277727CB016C197D098E099F094A
:100840004AE00E94800342E050E066E771E08CE8F5
:1008500091E00E948C0080918701811104C0D093A7
:100860008B01C0938A01DF91CF91FF90EF90DF90D1
:10087000CF9008952196FE01EE0FFF1FEC5EFE4F14
:10088000C5CF1F920F920FB60F9211242F933F9353
:100890004F935F936F937F938F939F93AF93BF9388
:1008A000EF93FF938CE891E00E940A01FF91EF9192
:1008B000BF91AF919F918F917F916F915F914F9178
:1008C0003F912F910F900FBE0F901F9018951F9280
:1008D0000F920FB60F9211242F938F939F93EF9344
:1008E000FF93E0919C01F0919D018081E091A20134
:1008F000F091A30182FD1BC090818091A5018F5FC3
:100900008F732091A601821741F0E091A501F0E0DC
:10091000E457FE4F958F8093A501FF91EF919F9132
:100920008F912F910F900FBE0F901F90189580817F
:10093000F4CF1F920F920FB60F9211242F933F9373
:100940008F939F93AF93BF93809181019091820188
:10095000A0918301B09184013091800123E0230FA5
:100960002D3758F50196A11DB11D2093800180936C
:10097000810190938201A0938301B09384018091BF
:100980007C0190917D01A0917E01B0917F01019643
:10099000A11DB11D80937C0190937D01A0937E01E8
:1009A000B0937F01BF91AF919F918F913F912F9114
:1009B0000F900FBE0F901F90189526E8230F0296F8
:1009C000A11DB11DD2CF1F920F920FB60F9211240D
:1009D0002F933F934F935F936F937F938F939F9347
:1009E000AF93BF93EF93FF93E0910201F091030166
:1009F0000995FF91EF91BF91AF919F918F917F9159
:100A00006F915F914F913F912F910F900FBE0F907B
:100A10001F9018951F920F920FB60F9211242F93CB
:100A20003F934F935F936F937F938F939F93AF9376
:100A3000BF93EF93FF93E0910001F09101010995BD
:100A4000FF91EF91BF91AF919F918F917F916F91A6
:100A50005F914F913F912F910F900FBE0F901F907C
:100A60001895789484B5826084BD84B5816084BD16
:100A700085B5826085BD85B5816085BD80916E003C
:100A8000816080936E00109281008091810082606D
:100A900080938100809181008160809381008091AA
:100AA00080008160809380008091B1008460809399
:100AB000B1008091B00081608093B00080917A0095
:100AC000846080937A0080917A00826080937A00BB
:100AD00080917A00816080937A0080917A008068AA
:100AE00080937A001092C100E0919C01F0919D01E9
:100AF00082E08083E0919801F09199011082E09169
:100B00009A01F0919B018FEC80831092A401E091F7
:100B1000A001F091A10186E08083E0919E01F09117
:100B20009F01808180618083E0919E01F0919F010F
:100B3000808188608083E0919E01F0919F01808197
:100B400080688083E0919E01F0919F0180818F7D7C
:100B5000808360E082E00E94190260E083E00E94EE
:100B6000190261E088E00E94190261E082E10E94BE
:100B7000190261E089E00E94190261E083E10E94AC
:100B8000190261E08EE00E94190261E080E00E949B
:100B9000190261E081E00E94190261E084E00E9494
:100BA000190260E08AE00E94190260E08BE00E9476
:100BB000190260E08CE00E94190260E08DE00E9462
:100BC0001902C6E4D1E004EF11E01093860100930E
:100BD000850161E08EE00E94EB016AA58FE00E9432
:100BE000EB016CA580E10E94EB016EA581E10E9402
:100BF000EB0184EF91E00E944A0260E08FE00E94E6
:100C0000EB0160E080E10E94EB0160E081E10E9485
:100C1000EB0160E08EE00E94EB0182E390E00E9435
:100C20005602269721E0C631D20779F68EE792E088
:100C30009093010180930001809169008C7F816015
:100C400080936900E89A8EEC93E09093030180937F
:100C5000020180916900837F846080936900E99A32
:100C6000AA24AA94BA2C44244A94542C00918A01B0
:100C700010918B01809188019091890108171907C3
:100C800009F49FC131E030938701EE24EA94FE2CF1
:100C9000801791071CF4EE24E394F12C081B190B28
:100CA000712C612C22243324201A310AC80117FD2B
:100CB000C101681679060CF01CC181E0E816F10448
:100CC00009F0A6C0C0E2D0E061E088E00E94EB013C
:100CD00060E082E10E94EB0161E089E00E94EB01AB
:100CE00060E083E10E94EB0185E090E00E94560203
:100CF00060E088E00E94EB0161E082E10E94EB018C
:100D000061E089E00E94EB0160E083E10E94EB0179
:100D100085E090E00E94560260E088E00E94EB01CE
:100D200061E082E10E94EB0160E089E00E94EB015A
:100D300060E083E10E94EB0185E090E00E945602B2
:100D400061E088E00E94EB0160E082E10E94EB013B
:100D500060E089E00E94EB0161E083E10E94EB0129
:100D600085E090E00E945602219709F0ADCFC09136
:100D70008801D0918901CE0DDF1DD0938901C093E8
:100D80008801E6E0EC9FC001ED9F900D11249C01CD
:100D90002A5B3E4F6901F901608184E00E94EB010A
:100DA000F601628181E00E94EB01F601648180E03E
:100DB0000E94EB016E01CC0CDD1CF1E0EF16F1049A
:100DC00009F081C096012C5D3E4F4901F9018081F7
:100DD0009181019731F4CE010E94AF02F401B182FA
:100DE000A08296012C5F3E4F6901F90180819181BB
:100DF000019731F4CE010E94AF02F601B182A082C8
:100E000084EF91E00E945602FFEF6F1A7F0A4ECFE7
:100E10009FEFE916F90609F0AACFC0E2D0E060E042
:100E200088E00E94EB0161E082E10E94EB0160E05A
:100E300089E00E94EB0161E083E10E94EB0185E023
:100E400090E00E94560261E088E00E94EB0160E0C1
:100E500082E10E94EB0160E089E00E94EB0161E029
:100E600083E10E94EB0185E090E00E94560260E081
:100E700088E00E94EB0161E082E10E94EB0161E009
:100E800089E00E94EB0160E083E10E94EB0185E0D4
:100E900090E00E94560261E088E00E94EB0160E071
:100EA00082E10E94EB0160E089E00E94EB0160E0DA
:100EB00083E10E94EB0185E090E00E9456022197B9
:100EC00009F0ADCF54CFFFEFEF16FF0609F089CF41
:100ED00096012C5E3E4F4901F90180819181019775
:100EE00009F07FCFCE010E94AF02F401F182E082CF
:100EF00078CFC0918801D0918901C730D10509F020
:100F00004FC087E090E00E94AF02509223014092D0
:100F1000220110928701CE01880F991FFC01EC5D20
:100F2000FE4F208131812130310579F0FC01EC5EEA
:100F3000FE4F208131812130310539F08C5F9E4F89
:100F4000FC0180819181019719F4CE010E94AF02CA
:100F5000E4E2F1E0C4E0D1E0A4E1B1E090E080E0BF
:100F6000219131912130310551F02D913D91213068
:100F7000310529F02991399121303105E9F4909317
:100F80008B0180938A0120E030E0232B09F46ECEA0
:100F90000E94F600882309F469CE0E94000066CE04
:100FA000209709F0B6CF90E080E00E94AF02509207
:100FB000250140922401ADCF01968830910581F63C
:100FC000E2CFEC01CC0FDD1FFE01EC5DFE4F208176
:100FD00031812130310581F0FE01EC5EFE4F208130
:100FE00031812130310541F0FE01EC5FFE4F20815F
:100FF00031812130310539F60E94AF02FE01EC5DEE
:10100000FE4FB182A082FE01EC5EFE4FB182A08253
:10101000CC5FDE4FB982A882B6CFECE8F1E0138254
:10102000128288EE93E0A0E0B0E084839583A683EB
:10103000B78388E391E09183808385EC90E0958786
:10104000848784EC90E09787868780EC90E0918B92
:10105000808B81EC90E0938B828B82EC90E0958B7F
:10106000848B86EC90E0978B868B118E128E138E7C
:10107000148E0895A1E21A2EAA1BBB1BFD010DC000
:10108000AA1FBB1FEE1FFF1FA217B307E407F50738
:1010900020F0A21BB30BE40BF50B661F771F881F14
:1010A000991F1A9469F760957095809590959B01AA
:1010B000AC01BD01CF010895EE0FFF1F0590F49123
:0810C000E02D0994F894FFCF24
:1010C80055025502FFFFFFFFFFFFFFFFFFFFFFFF76
:1010D800FFFFFFFFFFFFFFFFFFFFFFFFFFFFFFFF18
:1010E800FFFFFFFFFFFFFFFFFFFFFFFFFFFFFFFF08
:1010F800FFFFFFFF000000002C018C00B900790100
:10110800EA00C800DC000000000000000000000049
:1011180001000000010000000000010001000100C2
:1011280000000000010000000100010001000000B3
:0A1138000100010001000D0A000093
:00000001FF
